:1000000000308A0019280000223084008313000881
:10001000031918280130F800F701F70B0D28F80B29
:100020000C284A30F700F70B13281628800B0A28F3
:10003000080003081F398300FF30A00083161F1437
:100040009F141F159F1107309C00831300308312EB
:10005000A000831687013F30831287000530A1007E
:10006000F030A2000420A10B30280030A00083163D
:1000700087010630831287000530A100F030A2000E
:100080000420A10B3E280030A000831687015B30BE
:10009000831287000530A100F030A2000420A10BDC
:1000A0004C280030A000831687014F308312870050
:1000B0000530A100F030A2000420A10B5A28003026
:1000C000A000831687016630831287000530A100E7
:1000D000F030A2000420A10B68280030A000831695
:1000E00087016D30831287000530A100F030A20037
:1000F0000420A10B76280030A00083168701FD3074
:10010000831287000530A100F030A2000420A10B6B
:1001100084280030A00083168701073083128700EF
:100120000530A100F030A2000420A10B922800307D
:10013000A000831687013F30831287000530A1009D
:10014000F030A2000420A10BA0280030A0008316EC
:1001500087010630831287000530A100F030A2002D
:100160000420A10BAE280030A000831687015B306D
:10017000831287000530A100F030A2000420A10BFB
:10018000BC280030A000831687014F3083128700FF
:100190000530A100F030A2000420A10BCA280030D5
:1001A000A000831687016630831287000530A10006
:1001B000F030A2000420A10BD8280030A000831644
:1001C00087016D30831287000530A100F030A20056
:1001D0000420A10BE6280030A00083168701FD3023
:1001E000831287000530A100F030A2000420A10B8B
:1001F000F4280030A000831687010730831287009F
:100200000530A100F030A2000420A10B022900302B
:10021000A00083168701FF30831287000530A100FC
:10022000F030A2000420A10B10290030A00083169A
:100230008701EF30831287000530A100F030A20063
:0C0240000420A10B1E2983162628630051
:02400E00313F40
:00000001FF
;PIC16F877A
;CRC=EEE2  CREATED="10-Aug-21 14:46"
